{
  "transactions": [
    {
      "hash": "0x5f52dea872d148385876982078c60d93ba565713b312cacad3ef23d0f5a84030",
      "transactionType": "CALL",
      "contractName": null,
      "contractAddress": "0x9fe46736679d2d9a65f0992f2272de9f3c7fa6e0",
      "function": "deployAndRegisterApp(address,bool,bool,bytes32,bytes32)",
      "arguments": [
        "0xf39Fd6e51aad88F6F4ce6aB8827279cffFb92266",
        "false",
        "true",
        "0x0000000000000000000000000000000000000000000000000000000000000000",
        "0x0000000000000000000000000000000000000000000000000000000000000000"
      ],
      "transaction": {
        "from": "0xf39fd6e51aad88f6f4ce6ab8827279cfffb92266",
        "to": "0x9fe46736679d2d9a65f0992f2272de9f3c7fa6e0",
        "gas": "0x4ec23",
        "value": "0x0",
        "input": "0x8618169d000000000000000000000000f39fd6e51aad88f6f4ce6ab8827279cfffb922660000000000000000000000000000000000000000000000000000000000000000000000000000000000000000000000000000000000000000000000000000000100000000000000000000000000000000000000000000000000000000000000000000000000000000000000000000000000000000000000000000000000000000",
        "nonce": "0x4",
        "chainId": "0x7a69"
      },
      "additionalContracts": [
        {
          "transactionType": "CREATE",
          "address": "0x75537828f2ce51be7289709686a69cbfdbb714f1",
          "initCode": "0x60806040526040516103ef3803806103ef8339810160408190526100229161025d565b61002c8282610033565b5050610340565b61003c82610091565b6040516001600160a01b038316907fbc7cd75a20ee27fd9adebab32041f755214dbc6bffa90cc0225b39da2e5c2d3b905f90a280511561008557610080828261010c565b505050565b61008d61017f565b5050565b806001600160a01b03163b5f036100cb57604051634c9c8ce360e01b81526001600160a01b03821660048201526024015b60405180910390fd5b7f360894a13ba1a3210667c828492db98dca3e2076cc3735a920a3ca505d382bbc80546001600160a01b0319166001600160a01b0392909216919091179055565b60605f80846001600160a01b0316846040516101289190610325565b5f60405180830381855af49150503d805f8114610160576040519150601f19603f3d011682016040523d82523d5f602084013e610165565b606091505b5090925090506101768583836101a0565b95945050505050565b341561019e5760405163b398979f60e01b815260040160405180910390fd5b565b6060826101b5576101b0826101ff565b6101f8565b81511580156101cc57506001600160a01b0384163b155b156101f557604051639996b31560e01b81526001600160a01b03851660048201526024016100c2565b50805b9392505050565b80511561020e57805160208201fd5b60405163d6bda27560e01b815260040160405180910390fd5b634e487b7160e01b5f52604160045260245ffd5b5f5b8381101561025557818101518382015260200161023d565b50505f910152565b5f806040838503121561026e575f80fd5b82516001600160a01b0381168114610284575f80fd5b60208401519092506001600160401b03808211156102a0575f80fd5b818501915085601f8301126102b3575f80fd5b8151818111156102c5576102c5610227565b604051601f8201601f19908116603f011681019083821181831017156102ed576102ed610227565b81604052828152886020848701011115610305575f80fd5b61031683602083016020880161023b565b80955050505050509250929050565b5f825161033681846020870161023b565b9190910192915050565b60a38061034c5f395ff3fe6080604052600a600c565b005b60186014601a565b6050565b565b5f604b7f360894a13ba1a3210667c828492db98dca3e2076cc3735a920a3ca505d382bbc546001600160a01b031690565b905090565b365f80375f80365f845af43d5f803e8080156069573d5ff35b3d5ffdfea2646970667358221220d40811b859a41f3850bcb686bb1a6de217b4b4eabeeee5418a34d5fd8228f98964736f6c634300081600330000000000000000000000005fbdb2315678afecb367f032d93f642f64180aa3000000000000000000000000000000000000000000000000000000000000004000000000000000000000000000000000000000000000000000000000000000a4187515ca000000000000000000000000f39fd6e51aad88f6f4ce6ab8827279cfffb92266000000000000000000000000000000000000000000000000000000000000000000000000000000000000000000000000000000000000000000000000000000010000000000000000000000000000000000000000000000000000000000000000000000000000000000000000000000000000000000000000000000000000000000000000000000000000000000000000000000000000000000000000"
        }
      ],
      "isFixedGasLimit": false
    }
  ],
  "receipts": [
    {
      "status": "0x1",
      "cumulativeGasUsed": "0x35da2",
      "logs": [
        {
          "address": "0x75537828f2ce51be7289709686a69cbfdbb714f1",
          "topics": [
            "0xbc7cd75a20ee27fd9adebab32041f755214dbc6bffa90cc0225b39da2e5c2d3b",
            "0x0000000000000000000000005fbdb2315678afecb367f032d93f642f64180aa3"
          ],
          "data": "0x",
          "blockHash": "0xea09e6962cfea3987a741f442232ed7a972034372b0e596bae28fd089e2c3775",
          "blockNumber": "0x4",
          "blockTimestamp": "0x6966f478",
          "transactionHash": "0x5f52dea872d148385876982078c60d93ba565713b312cacad3ef23d0f5a84030",
          "transactionIndex": "0x0",
          "logIndex": "0x0",
          "removed": false
        },
        {
          "address": "0x75537828f2ce51be7289709686a69cbfdbb714f1",
          "topics": [
            "0x8be0079c531659141344cd1fd0a4f28419497f9722a3daafe3b4186f6b6457e0",
            "0x0000000000000000000000000000000000000000000000000000000000000000",
            "0x000000000000000000000000f39fd6e51aad88f6f4ce6ab8827279cfffb92266"
          ],
          "data": "0x",
          "blockHash": "0xea09e6962cfea3987a741f442232ed7a972034372b0e596bae28fd089e2c3775",
          "blockNumber": "0x4",
          "blockTimestamp": "0x6966f478",
          "transactionHash": "0x5f52dea872d148385876982078c60d93ba565713b312cacad3ef23d0f5a84030",
          "transactionIndex": "0x0",
          "logIndex": "0x1",
          "removed": false
        },
        {
          "address": "0x75537828f2ce51be7289709686a69cbfdbb714f1",
          "topics": [
            "0xc7f505b2f371ae2175ee4913f4499e1f2633a7b5936321eed1cdaeb6115181d2"
          ],
          "data": "0x0000000000000000000000000000000000000000000000000000000000000001",
          "blockHash": "0xea09e6962cfea3987a741f442232ed7a972034372b0e596bae28fd089e2c3775",
          "blockNumber": "0x4",
          "blockTimestamp": "0x6966f478",
          "transactionHash": "0x5f52dea872d148385876982078c60d93ba565713b312cacad3ef23d0f5a84030",
          "transactionIndex": "0x0",
          "logIndex": "0x2",
          "removed": false
        },
        {
          "address": "0x9fe46736679d2d9a65f0992f2272de9f3c7fa6e0",
          "topics": [
            "0x0d540ad8f39e07d19909687352b9fa017405d93c91a6760981fbae9cf28bfef7"
          ],
          "data": "0x00000000000000000000000075537828f2ce51be7289709686a69cbfdbb714f1",
          "blockHash": "0xea09e6962cfea3987a741f442232ed7a972034372b0e596bae28fd089e2c3775",
          "blockNumber": "0x4",
          "blockTimestamp": "0x6966f478",
          "transactionHash": "0x5f52dea872d148385876982078c60d93ba565713b312cacad3ef23d0f5a84030",
          "transactionIndex": "0x0",
          "logIndex": "0x3",
          "removed": false
        },
        {
          "address": "0x9fe46736679d2d9a65f0992f2272de9f3c7fa6e0",
          "topics": [
            "0xfd86d7f6962eba3b7a3bf9129c06c0b2f885e1c61ef2c9f0dbb856be0deefdee",
            "0x00000000000000000000000075537828f2ce51be7289709686a69cbfdbb714f1",
            "0x000000000000000000000000f39fd6e51aad88f6f4ce6ab8827279cfffb92266"
          ],
          "data": "0x",
          "blockHash": "0xea09e6962cfea3987a741f442232ed7a972034372b0e596bae28fd089e2c3775",
          "blockNumber": "0x4",
          "blockTimestamp": "0x6966f478",
          "transactionHash": "0x5f52dea872d148385876982078c60d93ba565713b312cacad3ef23d0f5a84030",
          "transactionIndex": "0x0",
          "logIndex": "0x4",
          "removed": false
        }
      ],
      "logsBloom": "0x0000000000000000000000000000000040000000000000000080000000000000000000000000000000000000000000000000000000004020000000000000000100000000000004000000000000000200000100100001000000000000000000000000000002000000200000010080080000000400008000000000000000000040000000000000000000080000000000000000000000008000000000000000000000000000000000000000000000004000000000000000000000000000000000000000002000000020000000000000080000000000200c000000004008000020000000000200000000000000000000000000000000000000400000000020000000",
      "type": "0x2",
      "transactionHash": "0x5f52dea872d148385876982078c60d93ba565713b312cacad3ef23d0f5a84030",
      "transactionIndex": "0x0",
      "blockHash": "0xea09e6962cfea3987a741f442232ed7a972034372b0e596bae28fd089e2c3775",
      "blockNumber": "0x4",
      "gasUsed": "0x35da2",
      "effectiveGasPrice": "0x294fa643",
      "blobGasPrice": "0x1",
      "from": "0xf39fd6e51aad88f6f4ce6ab8827279cfffb92266",
      "to": "0x9fe46736679d2d9a65f0992f2272de9f3c7fa6e0",
      "contractAddress": null
    }
  ],
  "libraries": [],
  "pending": [],
  "returns": {
    "0": {
      "internal_type": "address",
      "value": "0x75537828f2ce51be7289709686A69CbFDbB714F1"
    }
  },
  "timestamp": 1768354936,
  "chain": 31337,
  "commit": "135a3804"
}