{
  "transactions": [
    {
      "hash": "0xffddffd846d3e62f1346759d8eb7a5392e9bce4c6e57aba1b158ecdc4e5d3eec",
      "transactionType": "CALL",
      "contractName": null,
      "contractAddress": "0x75537828f2ce51be7289709686a69cbfdbb714f1",
      "function": "addComposeHash(bytes32)",
      "arguments": [
        "0xabcdef1234567890123456789012345678901234567890123456789012345678"
      ],
      "transaction": {
        "from": "0xf39fd6e51aad88f6f4ce6ab8827279cfffb92266",
        "to": "0x75537828f2ce51be7289709686a69cbfdbb714f1",
        "gas": "0x119b8",
        "value": "0x0",
        "input": "0xdfc77223abcdef1234567890123456789012345678901234567890123456789012345678",
        "nonce": "0x6",
        "chainId": "0x7a69"
      },
      "additionalContracts": [],
      "isFixedGasLimit": false
    }
  ],
  "receipts": [
    {
      "status": "0x1",
      "cumulativeGasUsed": "0xcbf6",
      "logs": [
        {
          "address": "0x75537828f2ce51be7289709686a69cbfdbb714f1",
          "topics": [
            "0xfecb34306dd9d8b785b54d65489d06afc8822a0893ddacedff40c50a4942d0af"
          ],
          "data": "0xabcdef1234567890123456789012345678901234567890123456789012345678",
          "blockHash": "0x0bb4a7a1d0bab702d2fe6fb307030963aceb15f13de95a9f8a327134fcd6b8f2",
          "blockNumber": "0x6",
          "blockTimestamp": "0x6966f479",
          "transactionHash": "0xffddffd846d3e62f1346759d8eb7a5392e9bce4c6e57aba1b158ecdc4e5d3eec",
          "transactionIndex": "0x0",
          "logIndex": "0x0",
          "removed": false
        }
      ],
      "logsBloom": "0x00000000000000000000000000000000000000008000000000000000000000000000000000000000000000000000000000000000000000000000000000000001000000000000000000000000000000000000000200000000000000000000000000000000000000000000000000000000000000000000000000000000000000000000000000000000000000000000000000000000000000000000800000000000000000000000000000000000000000000000000000000000000000000000000000000000000000000000000000000800000000000000000000000008000000000000000000000000000000000000000000000000000000000000000000000000",
      "type": "0x2",
      "transactionHash": "0xffddffd846d3e62f1346759d8eb7a5392e9bce4c6e57aba1b158ecdc4e5d3eec",
      "transactionIndex": "0x0",
      "blockHash": "0x0bb4a7a1d0bab702d2fe6fb307030963aceb15f13de95a9f8a327134fcd6b8f2",
      "blockNumber": "0x6",
      "gasUsed": "0xcbf6",
      "effectiveGasPrice": "0x1fb9a504",
      "blobGasPrice": "0x1",
      "from": "0xf39fd6e51aad88f6f4ce6ab8827279cfffb92266",
      "to": "0x75537828f2ce51be7289709686a69cbfdbb714f1",
      "contractAddress": null
    }
  ],
  "libraries": [],
  "pending": [],
  "returns": {},
  "timestamp": 1768354937,
  "chain": 31337,
  "commit": "135a3804"
}