{
  "transactions": [
    {
      "hash": "0x8f6729e27f65bac1b46ae9fe4e4c34df256763590719ecc7703fc7684dc1943e",
      "transactionType": "CALL",
      "contractName": null,
      "contractAddress": "0x9fe46736679d2d9a65f0992f2272de9f3c7fa6e0",
      "function": "setGatewayAppId(string)",
      "arguments": [
        "0x75537828f2ce51be7289709686A69CbFDbB714F1"
      ],
      "transaction": {
        "from": "0xf39fd6e51aad88f6f4ce6ab8827279cfffb92266",
        "to": "0x9fe46736679d2d9a65f0992f2272de9f3c7fa6e0",
        "gas": "0x2165b",
        "value": "0x0",
        "input": "0x3971db270000000000000000000000000000000000000000000000000000000000000020000000000000000000000000000000000000000000000000000000000000002a30783735353337383238663263653531626537323839373039363836413639436246446242373134463100000000000000000000000000000000000000000000",
        "nonce": "0x5",
        "chainId": "0x7a69"
      },
      "additionalContracts": [],
      "isFixedGasLimit": false
    }
  ],
  "receipts": [
    {
      "status": "0x1",
      "cumulativeGasUsed": "0x182de",
      "logs": [
        {
          "address": "0x9fe46736679d2d9a65f0992f2272de9f3c7fa6e0",
          "topics": [
            "0x5b2b64f770ea5266055ebd3ebf205ef06cbfa738e62684edf0e28356e34acf06"
          ],
          "data": "0x0000000000000000000000000000000000000000000000000000000000000020000000000000000000000000000000000000000000000000000000000000002a30783735353337383238663263653531626537323839373039363836413639436246446242373134463100000000000000000000000000000000000000000000",
          "blockHash": "0x284d26b4f82c3d29d64f832802210a5862400f247e8955a7411527de34e56fd5",
          "blockNumber": "0x5",
          "blockTimestamp": "0x6966ebf1",
          "transactionHash": "0x8f6729e27f65bac1b46ae9fe4e4c34df256763590719ecc7703fc7684dc1943e",
          "transactionIndex": "0x0",
          "logIndex": "0x0",
          "removed": false
        }
      ],
      "logsBloom": "0x00000000000000000000080000000000000000000000000000000000000000000000000000000000000000000000000000000000000040200000000000000000000000000000000000000000000000000000000000000000000000000000000000000000000000000000000000000000000000000000000000000000000000000000000000000000000000000000000000000000010000000000000000000000000000000000000000000000000000000000000000000000000000000000000000000000000000000000000000000000000000000000000000000000000000000000000000000000000000000000000000000000000000400000020000000000",
      "type": "0x2",
      "transactionHash": "0x8f6729e27f65bac1b46ae9fe4e4c34df256763590719ecc7703fc7684dc1943e",
      "transactionIndex": "0x0",
      "blockHash": "0x284d26b4f82c3d29d64f832802210a5862400f247e8955a7411527de34e56fd5",
      "blockNumber": "0x5",
      "gasUsed": "0x182de",
      "effectiveGasPrice": "0x24392207",
      "blobGasPrice": "0x1",
      "from": "0xf39fd6e51aad88f6f4ce6ab8827279cfffb92266",
      "to": "0x9fe46736679d2d9a65f0992f2272de9f3c7fa6e0",
      "contractAddress": null
    }
  ],
  "libraries": [],
  "pending": [],
  "returns": {},
  "timestamp": 1768352753,
  "chain": 31337,
  "commit": "135a3804"
}